{
  "address": "0x3131461C679771bf24162c70F61D11CD963a598F",
  "abi": [
    {
      "inputs": [
        {
          "internalType": "uint256",
          "name": "_locktime",
          "type": "uint256"
        },
        {
          "internalType": "address",
          "name": "dataFeedAddr",
          "type": "address"
        }
      ],
      "stateMutability": "nonpayable",
      "type": "constructor"
    },
    {
      "inputs": [],
      "name": "dataFeed",
      "outputs": [
        {
          "internalType": "contract AggregatorV3Interface",
          "name": "",
          "type": "address"
        }
      ],
      "stateMutability": "view",
      "type": "function"
    },
    {
      "inputs": [],
      "name": "fund",
      "outputs": [],
      "stateMutability": "payable",
      "type": "function"
    },
    {
      "inputs": [
        {
          "internalType": "address",
          "name": "",
          "type": "address"
        }
      ],
      "name": "funderToAmounts",
      "outputs": [
        {
          "internalType": "uint256",
          "name": "",
          "type": "uint256"
        }
      ],
      "stateMutability": "view",
      "type": "function"
    },
    {
      "inputs": [],
      "name": "getChainlinkDataFeedLatestAnswer",
      "outputs": [
        {
          "internalType": "int256",
          "name": "",
          "type": "int256"
        }
      ],
      "stateMutability": "view",
      "type": "function"
    },
    {
      "inputs": [],
      "name": "getFund",
      "outputs": [],
      "stateMutability": "nonpayable",
      "type": "function"
    },
    {
      "inputs": [],
      "name": "getFundSucess",
      "outputs": [
        {
          "internalType": "bool",
          "name": "",
          "type": "bool"
        }
      ],
      "stateMutability": "view",
      "type": "function"
    },
    {
      "inputs": [],
      "name": "o",
      "outputs": [
        {
          "internalType": "uint256",
          "name": "",
          "type": "uint256"
        }
      ],
      "stateMutability": "view",
      "type": "function"
    },
    {
      "inputs": [],
      "name": "owner",
      "outputs": [
        {
          "internalType": "address",
          "name": "",
          "type": "address"
        }
      ],
      "stateMutability": "view",
      "type": "function"
    },
    {
      "inputs": [],
      "name": "p",
      "outputs": [
        {
          "internalType": "uint256",
          "name": "",
          "type": "uint256"
        }
      ],
      "stateMutability": "view",
      "type": "function"
    },
    {
      "inputs": [],
      "name": "refund",
      "outputs": [],
      "stateMutability": "nonpayable",
      "type": "function"
    },
    {
      "inputs": [
        {
          "internalType": "address",
          "name": "_erc20Addr",
          "type": "address"
        }
      ],
      "name": "setERC20Adder",
      "outputs": [],
      "stateMutability": "nonpayable",
      "type": "function"
    },
    {
      "inputs": [
        {
          "internalType": "address",
          "name": "funder",
          "type": "address"
        },
        {
          "internalType": "uint256",
          "name": "amountToUpdate",
          "type": "uint256"
        }
      ],
      "name": "setFunderToAmount",
      "outputs": [],
      "stateMutability": "nonpayable",
      "type": "function"
    },
    {
      "inputs": [],
      "name": "t",
      "outputs": [
        {
          "internalType": "uint256",
          "name": "",
          "type": "uint256"
        }
      ],
      "stateMutability": "view",
      "type": "function"
    },
    {
      "inputs": [
        {
          "internalType": "address",
          "name": "newOwer",
          "type": "address"
        }
      ],
      "name": "transferOwnership",
      "outputs": [],
      "stateMutability": "nonpayable",
      "type": "function"
    },
    {
      "inputs": [],
      "name": "w",
      "outputs": [
        {
          "internalType": "uint256",
          "name": "",
          "type": "uint256"
        }
      ],
      "stateMutability": "view",
      "type": "function"
    }
  ],
  "transactionHash": "0xb4450c2334e906c464015a9d14cb3de3249f7488934fca24832de41591b044a6",
  "args": [
    180,
    "0x694AA1769357215DE4FAC081bf1f309aDC325306"
  ],
  "numDeployments": 1,
  "solcInputHash": "39da21df2695c3d8a40b761bc48424ab",
  "bytecode": "0x608060405268056bc75e2d6310000060015534801561001d57600080fd5b506040516116ba3803806116ba833981810160405281019061003f919061016f565b80600260006101000a81548173ffffffffffffffffffffffffffffffffffffffff021916908373ffffffffffffffffffffffffffffffffffffffff16021790555033600660006101000a81548173ffffffffffffffffffffffffffffffffffffffff021916908373ffffffffffffffffffffffffffffffffffffffff160217905550426003819055508160048190555050506101af565b600080fd5b6000819050919050565b6100ee816100db565b81146100f957600080fd5b50565b60008151905061010b816100e5565b92915050565b600073ffffffffffffffffffffffffffffffffffffffff82169050919050565b600061013c82610111565b9050919050565b61014c81610131565b811461015757600080fd5b50565b60008151905061016981610143565b92915050565b60008060408385031215610186576101856100d6565b5b6000610194858286016100fc565b92505060206101a58582860161015a565b9150509250929050565b6114fc806101be6000396000f3fe6080604052600436106100e85760003560e01c806392d0d1531161008a578063b60d428811610059578063b60d4288146102ae578063bea4dfb5146102b8578063d39cf006146102e3578063f2fde38b1461030c576100e8565b806392d0d153146102025780639ae8886a1461022d5780639e42ff9014610258578063a994864514610283576100e8565b80636a46baee116100c65780636a46baee1461015a5780636b91767d146101835780638da5cb5b146101c05780638edd6eb6146101eb576100e8565b8063205c9cc7146100ed57806350cd4df214610118578063590e1ae314610143575b600080fd5b3480156100f957600080fd5b50610102610335565b60405161010f9190610c9b565b60405180910390f35b34801561012457600080fd5b5061012d61033b565b60405161013a9190610c9b565b60405180910390f35b34801561014f57600080fd5b50610158610341565b005b34801561016657600080fd5b50610181600480360381019061017c9190610d19565b61059a565b005b34801561018f57600080fd5b506101aa60048036038101906101a59190610d19565b61066e565b6040516101b79190610c9b565b60405180910390f35b3480156101cc57600080fd5b506101d5610686565b6040516101e29190610d55565b60405180910390f35b3480156101f757600080fd5b506102006106ac565b005b34801561020e57600080fd5b506102176108cd565b6040516102249190610c9b565b60405180910390f35b34801561023957600080fd5b506102426108d3565b60405161024f9190610c9b565b60405180910390f35b34801561026457600080fd5b5061026d6108d9565b60405161027a9190610dcf565b60405180910390f35b34801561028f57600080fd5b506102986108ff565b6040516102a59190610e05565b60405180910390f35b6102b6610912565b005b3480156102c457600080fd5b506102cd6109f5565b6040516102da9190610e39565b60405180910390f35b3480156102ef57600080fd5b5061030a60048036038101906103059190610e80565b610a96565b005b34801561031857600080fd5b50610333600480360381019061032e9190610d19565b610b6d565b005b60075481565b60095481565b600454600354426103529190610eef565b1015610393576040517f08c379a000000000000000000000000000000000000000000000000000000000815260040161038a90610f80565b60405180910390fd5b683635c9adc5dea000006103a647610c41565b106103e6576040517f08c379a00000000000000000000000000000000000000000000000000000000081526004016103dd90610fec565b60405180910390fd5b60008060003373ffffffffffffffffffffffffffffffffffffffff1673ffffffffffffffffffffffffffffffffffffffff1681526020019081526020016000205403610467576040517f08c379a000000000000000000000000000000000000000000000000000000000815260040161045e90611058565b60405180910390fd5b60003373ffffffffffffffffffffffffffffffffffffffff166000803373ffffffffffffffffffffffffffffffffffffffff1673ffffffffffffffffffffffffffffffffffffffff168152602001908152602001600020546040516104cb906110a9565b60006040518083038185875af1925050503d8060008114610508576040519150601f19603f3d011682016040523d82523d6000602084013e61050d565b606091505b50508091505080610553576040517f08c379a000000000000000000000000000000000000000000000000000000000815260040161054a9061110a565b60405180910390fd5b60008060003373ffffffffffffffffffffffffffffffffffffffff1673ffffffffffffffffffffffffffffffffffffffff1681526020019081526020016000208190555050565b600660009054906101000a900473ffffffffffffffffffffffffffffffffffffffff1673ffffffffffffffffffffffffffffffffffffffff163373ffffffffffffffffffffffffffffffffffffffff161461062a576040517f08c379a00000000000000000000000000000000000000000000000000000000081526004016106219061119c565b60405180910390fd5b80600560006101000a81548173ffffffffffffffffffffffffffffffffffffffff021916908373ffffffffffffffffffffffffffffffffffffffff16021790555050565b60006020528060005260406000206000915090505481565b600660009054906101000a900473ffffffffffffffffffffffffffffffffffffffff1681565b600454600354426106bd9190610eef565b10156106fe576040517f08c379a00000000000000000000000000000000000000000000000000000000081526004016106f590610f80565b60405180910390fd5b600660009054906101000a900473ffffffffffffffffffffffffffffffffffffffff1673ffffffffffffffffffffffffffffffffffffffff163373ffffffffffffffffffffffffffffffffffffffff161461078e576040517f08c379a00000000000000000000000000000000000000000000000000000000081526004016107859061119c565b60405180910390fd5b683635c9adc5dea000006107a147610c41565b10156107e2576040517f08c379a00000000000000000000000000000000000000000000000000000000081526004016107d990610fec565b60405180910390fd5b6107eb47610c41565b600781905550683635c9adc5dea0000060088190555060003373ffffffffffffffffffffffffffffffffffffffff1647604051610827906110a9565b60006040518083038185875af1925050503d8060008114610864576040519150601f19603f3d011682016040523d82523d6000602084013e610869565b606091505b505080915050806108af576040517f08c379a00000000000000000000000000000000000000000000000000000000081526004016108a69061110a565b60405180910390fd5b6001600660146101000a81548160ff02191690831515021790555050565b60085481565b600a5481565b600260009054906101000a900473ffffffffffffffffffffffffffffffffffffffff1681565b600660149054906101000a900460ff1681565b600454600354426109239190610eef565b10610963576040517f08c379a000000000000000000000000000000000000000000000000000000000815260040161095a90611208565b60405180910390fd5b60015461096f34610c41565b10156109b0576040517f08c379a00000000000000000000000000000000000000000000000000000000081526004016109a790611274565b60405180910390fd5b346000803373ffffffffffffffffffffffffffffffffffffffff1673ffffffffffffffffffffffffffffffffffffffff16815260200190815260200160002081905550565b600080600260009054906101000a900473ffffffffffffffffffffffffffffffffffffffff1673ffffffffffffffffffffffffffffffffffffffff1663feaf968c6040518163ffffffff1660e01b815260040160a060405180830381865afa158015610a65573d6000803e3d6000fd5b505050506040513d601f19601f82011682018060405250810190610a899190611317565b5050509150508091505090565b600560009054906101000a900473ffffffffffffffffffffffffffffffffffffffff1673ffffffffffffffffffffffffffffffffffffffff163373ffffffffffffffffffffffffffffffffffffffff1614610b26576040517f08c379a0000000000000000000000000000000000000000000000000000000008152600401610b1d90611404565b60405180910390fd5b806000808473ffffffffffffffffffffffffffffffffffffffff1673ffffffffffffffffffffffffffffffffffffffff168152602001908152602001600020819055505050565b600660009054906101000a900473ffffffffffffffffffffffffffffffffffffffff1673ffffffffffffffffffffffffffffffffffffffff163373ffffffffffffffffffffffffffffffffffffffff1614610bfd576040517f08c379a0000000000000000000000000000000000000000000000000000000008152600401610bf49061119c565b60405180910390fd5b80600660006101000a81548173ffffffffffffffffffffffffffffffffffffffff021916908373ffffffffffffffffffffffffffffffffffffffff16021790555050565b600080610c4c6109f5565b90508060098190555082600a81905550662386f26fc100008382610c709190611424565b610c7a9190611495565b915050919050565b6000819050919050565b610c9581610c82565b82525050565b6000602082019050610cb06000830184610c8c565b92915050565b600080fd5b600073ffffffffffffffffffffffffffffffffffffffff82169050919050565b6000610ce682610cbb565b9050919050565b610cf681610cdb565b8114610d0157600080fd5b50565b600081359050610d1381610ced565b92915050565b600060208284031215610d2f57610d2e610cb6565b5b6000610d3d84828501610d04565b91505092915050565b610d4f81610cdb565b82525050565b6000602082019050610d6a6000830184610d46565b92915050565b6000819050919050565b6000610d95610d90610d8b84610cbb565b610d70565b610cbb565b9050919050565b6000610da782610d7a565b9050919050565b6000610db982610d9c565b9050919050565b610dc981610dae565b82525050565b6000602082019050610de46000830184610dc0565b92915050565b60008115159050919050565b610dff81610dea565b82525050565b6000602082019050610e1a6000830184610df6565b92915050565b6000819050919050565b610e3381610e20565b82525050565b6000602082019050610e4e6000830184610e2a565b92915050565b610e5d81610c82565b8114610e6857600080fd5b50565b600081359050610e7a81610e54565b92915050565b60008060408385031215610e9757610e96610cb6565b5b6000610ea585828601610d04565b9250506020610eb685828601610e6b565b9150509250929050565b7f4e487b7100000000000000000000000000000000000000000000000000000000600052601160045260246000fd5b6000610efa82610c82565b9150610f0583610c82565b9250828203905081811115610f1d57610f1c610ec0565b5b92915050565b600082825260208201905092915050565b7f77696e646f77206973206e6f20636c6f73656420000000000000000000000000600082015250565b6000610f6a601483610f23565b9150610f7582610f34565b602082019050919050565b60006020820190508181036000830152610f9981610f5d565b9050919050565b7f546172676574206973206e6f7420726561636872640000000000000000000000600082015250565b6000610fd6601583610f23565b9150610fe182610fa0565b602082019050919050565b6000602082019050818103600083015261100581610fc9565b9050919050565b7f7468657265206973206e6f2066756e6420666f7220796f750000000000000000600082015250565b6000611042601883610f23565b915061104d8261100c565b602082019050919050565b6000602082019050818103600083015261107181611035565b9050919050565b600081905092915050565b50565b6000611093600083611078565b915061109e82611083565b600082019050919050565b60006110b482611086565b9150819050919050565b7f7472616e73666572207478206661696c65640000000000000000000000000000600082015250565b60006110f4601283610f23565b91506110ff826110be565b602082019050919050565b60006020820190508181036000830152611123816110e7565b9050919050565b7f546869732066756e6374696f6e2063616e206f6e6c792062652063616c6c656460008201527f206279206f776e65720000000000000000000000000000000000000000000000602082015250565b6000611186602983610f23565b91506111918261112a565b604082019050919050565b600060208201905081810360008301526111b581611179565b9050919050565b7f77696e646f7720697320636c6f73656420000000000000000000000000000000600082015250565b60006111f2601183610f23565b91506111fd826111bc565b602082019050919050565b60006020820190508181036000830152611221816111e5565b9050919050565b7f53656e64206d6f72652045544800000000000000000000000000000000000000600082015250565b600061125e600d83610f23565b915061126982611228565b602082019050919050565b6000602082019050818103600083015261128d81611251565b9050919050565b600069ffffffffffffffffffff82169050919050565b6112b381611294565b81146112be57600080fd5b50565b6000815190506112d0816112aa565b92915050565b6112df81610e20565b81146112ea57600080fd5b50565b6000815190506112fc816112d6565b92915050565b60008151905061131181610e54565b92915050565b600080600080600060a0868803121561133357611332610cb6565b5b6000611341888289016112c1565b9550506020611352888289016112ed565b945050604061136388828901611302565b935050606061137488828901611302565b9250506080611385888289016112c1565b9150509295509295909350565b7f796f7520646f206e6f742068617665207065726d697373696f6e20746f20636160008201527f6c6c20746869732066756e6374696f6e00000000000000000000000000000000602082015250565b60006113ee603083610f23565b91506113f982611392565b604082019050919050565b6000602082019050818103600083015261141d816113e1565b9050919050565b600061142f82610c82565b915061143a83610c82565b925082820261144881610c82565b9150828204841483151761145f5761145e610ec0565b5b5092915050565b7f4e487b7100000000000000000000000000000000000000000000000000000000600052601260045260246000fd5b60006114a082610c82565b91506114ab83610c82565b9250826114bb576114ba611466565b5b82820490509291505056fea264697066735822122068b0bdd6474fa9a455426df3c64803e2002b987ca08bdec4c16909ee8cb1d8b164736f6c634300081c0033",
  "devdoc": {
    "kind": "dev",
    "methods": {},
    "version": 1
  },
  "userdoc": {
    "kind": "user",
    "methods": {},
    "version": 1
  },
  "storageLayout": {
    "storage": [
      {
        "astId": 53,
        "contract": "contracts/FundMe.sol:FundMe",
        "label": "funderToAmounts",
        "offset": 0,
        "slot": "0",
        "type": "t_mapping(t_address,t_uint256)"
      },
      {
        "astId": 60,
        "contract": "contracts/FundMe.sol:FundMe",
        "label": "MINIMUM_VALUE",
        "offset": 0,
        "slot": "1",
        "type": "t_uint256"
      },
      {
        "astId": 70,
        "contract": "contracts/FundMe.sol:FundMe",
        "label": "dataFeed",
        "offset": 0,
        "slot": "2",
        "type": "t_contract(AggregatorV3Interface)45"
      },
      {
        "astId": 72,
        "contract": "contracts/FundMe.sol:FundMe",
        "label": "deploymentTimestamp",
        "offset": 0,
        "slot": "3",
        "type": "t_uint256"
      },
      {
        "astId": 74,
        "contract": "contracts/FundMe.sol:FundMe",
        "label": "locktime",
        "offset": 0,
        "slot": "4",
        "type": "t_uint256"
      },
      {
        "astId": 76,
        "contract": "contracts/FundMe.sol:FundMe",
        "label": "erc20Adder",
        "offset": 0,
        "slot": "5",
        "type": "t_address"
      },
      {
        "astId": 78,
        "contract": "contracts/FundMe.sol:FundMe",
        "label": "owner",
        "offset": 0,
        "slot": "6",
        "type": "t_address"
      },
      {
        "astId": 80,
        "contract": "contracts/FundMe.sol:FundMe",
        "label": "getFundSucess",
        "offset": 20,
        "slot": "6",
        "type": "t_bool"
      },
      {
        "astId": 82,
        "contract": "contracts/FundMe.sol:FundMe",
        "label": "w",
        "offset": 0,
        "slot": "7",
        "type": "t_uint256"
      },
      {
        "astId": 84,
        "contract": "contracts/FundMe.sol:FundMe",
        "label": "t",
        "offset": 0,
        "slot": "8",
        "type": "t_uint256"
      },
      {
        "astId": 86,
        "contract": "contracts/FundMe.sol:FundMe",
        "label": "o",
        "offset": 0,
        "slot": "9",
        "type": "t_uint256"
      },
      {
        "astId": 88,
        "contract": "contracts/FundMe.sol:FundMe",
        "label": "p",
        "offset": 0,
        "slot": "10",
        "type": "t_uint256"
      }
    ],
    "types": {
      "t_address": {
        "encoding": "inplace",
        "label": "address",
        "numberOfBytes": "20"
      },
      "t_bool": {
        "encoding": "inplace",
        "label": "bool",
        "numberOfBytes": "1"
      },
      "t_contract(AggregatorV3Interface)45": {
        "encoding": "inplace",
        "label": "contract AggregatorV3Interface",
        "numberOfBytes": "20"
      },
      "t_mapping(t_address,t_uint256)": {
        "encoding": "mapping",
        "key": "t_address",
        "label": "mapping(address => uint256)",
        "numberOfBytes": "32",
        "value": "t_uint256"
      },
      "t_uint256": {
        "encoding": "inplace",
        "label": "uint256",
        "numberOfBytes": "32"
      }
    }
  }
}